:02000000382B9B
:10000800FF00030E8301A7000A08A6008A017B08E7
:10001800A2007C08A1007D08A0000B1D41280B113F
:100028006C30810085182128051D2028851D202871
:10003800051E202858211828412805192C28851C18
:100048002B28851D2B28051E2B280B222328412809
:1000580085193728051D3628851C3628051E36289B
:1000680095222E284128051A4128051D4128851D5D
:100078004128851C4128C52139282208FB00210870
:10008800FC002008FD0026088A00270E8300FF0ECA
:040098007F0E0900CE
:10009C008312031306148614061586150616861687
:0600AC000617861708008C
:1000B2008312031306108610061186110612861289
:0600C2000613861308007E
:0E00C8008312031325088A0024088200080012
:1000D600103083120313FD00FD0B6F28000008008B
:0400E600000008000E
:1000EA00083083120313FC002330FD00FD0B7B282C
:0600FA00FC0B7B2808004E
:100100000730831203139F008630831681008B17FC
:100110000B178B166C30831281008316851405151E
:100120008515051683128514051585150516831684
:100130000610861006118611061286120613861303
:020140000800B5
:1001420083120313A81BA7288613A8288617281B27
:10015200AC280613AD280617A81AB1288612B228B1
:100162008616281AB6280612B72806162318BB28A0
:100172008615BC288611061573200611A819C328F6
:100182008613C42886172819C8280613C9280617F3
:10019200A818CD288612CE2886162818D22806122C
:1001A200D32806162318D7288615D82886110615AF
:1001B20073200611231CDF287520E0286B2008001D
:1001C20064208A110A128000840AA40A0319A50A6B
:0801D200F003031DE128080001
:1001DA004E200230FB000430FC00BA30FD00FD0B5B
:1001EA00F428FC0BF428FB0BF428000059200230F9
:1001FA00FB000430FC00BA30FD00FD0B0229FC0BA9
:0A020A000229FB0B02290000080086
:10021400831603130611861106128612061386131B
:100224008312061186118613061386120612752090
:10023400752075208616061606157320061175207E
:1002440006157320061175200615732006117520F6
:100254000612061573200611752006157320061163
:100264008612861706157320061175208613061646
:100274000615732006110612061573200611752043
:10028400061573200611061606157320061175202F
:10029400061206157320061186170617861606160B
:0C02A400061573200611752023140800B5
:1002B0005920061486140230FB000430FC00BA30CA
:1002C000FD00FD0B6129FC0B6129FB0B612900007E
:1002D000061086100230FB000430FC00BA30FD002E
:1002E000FD0B7029FC0B7029FB0B70290000061513
:1002F00086150230FB000430FC00BA30FD00FD0B17
:100300007F29FC0B7F29FB0B7F290000061186113A
:100310000230FB000430FC00BA30FD00FD0B8E29DA
:10032000FC0B8E29FB0B8E29000006168616023068
:10033000FB000430FC00BA30FD00FD0B9D29FC0BD6
:100340009D29FB0B9D290000861206120230FB003E
:100350000430FC00BA30FD00FD0BAC29FC0BAC29CD
:10036000FB0BAC290000061786170230FB00043097
:10037000FC00BA30FD00FD0BBB29FC0BBB29FB0BBD
:0A038000BB290000061386130800D5
:10038A005920061486170230FB000430FC00BA30EC
:10039A00FD00FD0BCE29FC0BCE29FB0BCE2900005C
:1003AA0006108613861406170230FB000430FC0080
:1003BA00BA30FD00FD0BDF29FC0BDF29FB0BDF291F
:1003CA00000086100613061586160230FB0004305C
:1003DA00FC00BA30FD00FD0BF029FC0BF029FB0BE9
:1003EA00F029000006118612861506160230FB0057
:1003FA000430FC00BA30FD00FD0B012AFC0B012A77
:0C040A00FB0B012A0000861106120800FE
:1004160059208617C330FC00CD30FD00FD0B112A94
:10042600FC0B112A8613C330FC00CD30FD00FD0BFA
:100436001A2AFC0B1A2A0617C330FC00CD30FD0021
:10044600FD0B232AFC0B232A0613C330FC00CD30F8
:10045600FD00FD0B2C2AFC0B2C2A8616C330FC0053
:10046600CD30FD00FD0B352AFC0B352A8612C33034
:10047600FC00CD30FD00FD0B3E2AFC0B3E2A061685
:10048600C330FC00CD30FD00FD0B472AFC0B472A8C
:100496000612C330FC00CD30FD00FD0B502AFC0BCC
:1004A600502A8615C330FC00CD30FD00FD0B592ABD
:1004B600FC0B592A8611C330FC00CD30FD00FD0B24
:1004C600622AFC0B622A0615C330FC00CD30FD0003
:1004D600FD0B6B2AFC0B6B2A0611C330FC00CD30DA
:1004E600FD00FD0B742AFC0B742A8614C330FC0035
:1004F600CD30FD00FD0B7D2AFC0B7D2A8610C33016
:10050600FC00CD30FD00FD0B862AFC0B862A061466
:10051600C330FC00CD30FD00FD0B8F2AFC0B8F2A6B
:0405260006100800B3
:10052A0083120313A901AA01592006148614061579
:10053A0086158230FC00DD30FD00FD0BA22AFC0B83
:10054A00A22A0000000080302A06F00080307002E3
:10055A00031DB12A053029020318E72A061682303C
:10056A00FC00DD30FD00FD0BB82AFC0BB82A0000A8
:10057A000000061286168230FC00DD30FD00FD0BFD
:10058A00C42AFC0BC42A0000000086120617823017
:10059A00FC00DD30FD00FD0BD02AFC0BD02A000048
:1005AA000000061386178230FC00DD30FD00FD0BCB
:1005BA00DC2AFC0BDC2A000000008613A90A0319B6
:1005CA00AA0AA82AA901AA01592086170617861677
:1005DA0006168230FC00DD30FD00FD0BF22AFC0B12
:1005EA00F22A0000000080302A06F00080307002F3
:1005FA00031D012B053029020318372B861582307B
:10060A00FC00DD30FD00FD0B082BFC0B082B000065
:10061A000000861106158230FC00DD30FD00FD0B5E
:10062A00142BFC0B142B00000000061186148230D8
:10063A00FC00DD30FD00FD0B202BFC0B202B000005
:10064A000000861006148230FC00DD30FD00FD0B30
:10065A002C2BFC0B2C2B000000000610A90A0319F6
:06066A00AA0AF82A0800AC
:100670000A210130A800A1200C30A800A120802070
:06068000ED20402B422B8F
:02400E0022216D
:00000001FF
